:020000040000FA
:100000001804001051020000590200005B020000B9
:100010005D0200005F0200006102000000000000BD
:10002000000000000000000000000000630200006B
:100030006502000000000000670200002932000095
:100040006B020000310700006B0200006B02000031
:100050006B0200006B0200006B0200006B020000EC
:100060006B0200006B0200006B0200006B020000DC
:100070006B0200006B0200006B0200006B020000CC
:100080006B0200006B0200006B0200006B020000BC
:100090006B0200006B0200006B0200006B020000AC
:1000A000E71D00006B0200006B0200006B02000005
:1000B0006B0200006B0200006B0200006B0200008C
:1000C0006B0200006B0200006B02000000F002F8FF
:1000D00000F03FF80AA090E8000C82448344AAF1A3
:1000E0000107DA4501D100F034F8AFF2090EBAE8A1
:1000F0000F0013F0010F18BFFB1A43F0010318475C
:1001000078AA0500A8AA0500103A24BF78C878C1CB
:10011000FAD8520724BF30C830C144BF04680C600D
:10012000704700000023002400250026103A28BF55
:1001300078C1FBD8520728BF30C148BF0B60704759
:10014000692903F0C581002070471FB51FBD10B598
:1001500010BD03F06DFA1146FFF7F7FF00F073FBD7
:1001600003F08BFA03B4FFF7F2FF03BC03F090FA3D
:1001700010B500F0C5F810BD7047704770471FB547
:10018000044614F0080F2AD0032001F0FFFD2B498C
:1001900009682B4A1288022303FB0211884217D0F8
:1001A0002748008880302649088008460088C0F328
:1001B000090008800846008822490988401AC0F3CF
:1001C0000900B0F5007F0AD101201F49087006E040
:1001D00000201D4908701A4800881A4908800A2022
:1001E000F0B11648006816490988022202FB010096
:1001F00000900420ADF804000020ADF8060013487C
:100200000068029000200390039820F00200801CF8
:1002100003906946032001F003FD032001F07CFDFB
:100220001FBD7047704770477047704770477047F1
:100230007047704770477047704700008800001093
:100240009E0000109C000010A00000108400001010
:100250000948804709480047FEE7FEE7FEE7FEE75A
:10026000FEE7FEE7FEE7FEE7FEE7FEE70448054996
:10027000034A054B70470000C5220000CD00000076
:10028000180200101804001018020010124800682C
:1002900040F400401149C1F8C4001148C068114938
:1002A00000EA01000E49C8600F48006A20F0F260C1
:1002B0000D49086270470C49496B792202EA1150D6
:1002C000704700B50023FFF7F6FF0346792020EAC8
:1002D0000303184600BD0000C4C00F4000C00F401B
:1002E00000C00240FF3CC0FF00C0092070477047BB
:1002F00070470A6802F8010B0A607047FFFFFFFFB2
:100300000020EB490880EB490870EB4908704FF07A
:100310000110EA4908600020E9490860E9490860DD
:10032000704710B5E849002001F0DBFB10BD10B5A7
:10033000E6488088402801DD402401E0E3488488C5
:10034000E24822460168802001F0F9FB0446DF48BC
:1003500000682044DD49086008468088001B8880CA
:1003600010BD10B5D9480168002001F0BAFB044661
:10037000D64800682044D549086008468088001B9C
:10038000888010BD10B500221146802001F0D7FBF7
:1003900010BD10B5CE49002001F0A3FB10BD10B573
:1003A0000446082C6FD2DFE804F06E04F2F16E6EA2
:1003B000F0EFFFF7B6FFC4490978C80901F048FB20
:1003C000C148C088C1498880BF480078C0F3411047
:1003D00010B1012879D190E0BB4840780C2875D243
:1003E000DFE800F0060D8815881D333A41555C8121
:1003F00003F0B2F900B9E1E0FFF799FF7BE00020DC
:1004000003F00AFA00B9D9E0FFF7BCFF73E001205E
:1004100003F002FA00B9D1E0FFF7B4FF6BE000BFD0
:10042000A948007810F01F0F06D1A748807840F047
:100430008000A049087001E0002001E000BF012019
:1004400000B9BBE0FFF79EFF55E003F029F900B9C2
:10045000B4E0FFF76CFF4EE0002001F021FB00202C
:100460009A49888047E000BF9748007810F01F0F36
:1004700003D191489549086001E0002001E000BFE8
:10048000012008B99AE010E1FFF751FF33E003F0D3
:1004900039FA00B992E0FFF775FF2CE000BF8A48F7
:1004A000007800F01F00012814D18348007870B153
:1004B0008548007987490978884208DA82480079B6
:1004C000854908448149086003E076E012E0002095
:1004D00004E001E0002001E000BF012000B96DE070
:1004E000FFF725FF07E003F0E7FA00B966E0FFF742
:1004F00049FF00E062E000BF67E07348007810F059
:100500001F0004D0012803D0022854D12DE055E06B
:100510006D48007938B16C480079012803D06A48E9
:100520000079022820D16848407882280BD004DC6A
:10053000012814D0812816D104E0832804D084280F
:1005400011D102E000BF00BF00BF01F073FD28B170
:100550005F485E490860FFF7EAFE2DE003E05C4873
:100560005A49086028E000BF28E0574840788228B0
:100570000FD004DC012818D081281AD108E0832884
:1005800008D0842815D106E08BE086E06CE01EE000
:1005900000BF00BF00BF01F0B5FD28B14C484B497A
:1005A0000860FFF7C4FE07E003E0494847490860D8
:1005B00002E000BF02E001E007E000BF802001F0A0
:1005C0006FFA00204149888000BF00BF6DE03E48BF
:1005D0000078C00945D13D48808880B3FFF7C1FE4F
:1005E0003A48808858BB38480078C0F3411010B1B1
:1005F000012834D100E0E1E73348007810F01F0013
:1006000004D0012803D0022827D119E0D6E72E48CC
:10061000007938B12C480079012803D02A480079A4
:1006200002280BD128484078012806D101F042FD6C
:1006300010B1FFF7A7FE11E000BF00BFBEE712E058
:1006400021484078012806D101F05EFD10B1FFF786
:1006500099FE03E000BF00BFB0E7AFE700E0ADE701
:1006600001E0FFF796FE20E0174800780121B1EB8A
:10067000D01F02D1FFF75BFE0EE00E48007810F0AD
:10068000800F09D00B48007800F07F0009490870FE
:100690000846007801F0D5F807E0002001F00DFAD7
:1006A00003E0802001F009FA00BF00BF10BD000088
:1006B00000000010020000100300001004000010F1
:1006C000080000100C00001020000010180000109E
:1006D000D80000101000001011000010F94A126834
:1006E00012F0807F08D000BF4FF060421268002AED
:1006F000FAD04FF0604318707047F349096841F031
:100700008071F14A116000BFEF49486810F0004F56
:10071000FAD0096821F08071EB4A1160F82101EAF2
:100720001021082202EAD0121144E84A11807047D1
:1007300070B5E7480078002836D0E6480068E649FA
:10074000098830F91140E5480088E3490988401AD2
:10075000C0F30905B5F5607F04D1DF480088401C6F
:10076000DD490880802D04D9DB480088401CDA4927
:100770000880D9480088C0F30900D7490880002CB8
:1007800005DAD7480068001BD549086004E0D44862
:1007900000682044D2490860D248006844432414C9
:1007A00004F50044A4B201E04FF40044CE480078C0
:1007B00008B14FF400444FF6C0702040CB490860A8
:1007C000CB4801880068401CC94A10608805800D2C
:1007D0001AD1FFF792FFC7480088B0F5004F03D148
:1007E0000020C049086006E0C2480088B74909886F
:1007F0004843BC490860BA480068040D0020B84965
:100800000860072C00DD072401204FF0402108601C
:10081000FFF757FD402815D1012000F081FF182077
:1008200000F07EFF002001F0BBF80020B249086014
:100830000120B2490860B249086001F017F80120B0
:1008400001F0AEF870BD0EB50024012502F02AFDBE
:1008500001F094FEFFF71AFD01F0B0FF4FF6FF70B4
:1008600002F043FB002002F03DFB4FF6E07002F087
:1008700036FBA4A301220021084602F0C0FBA7A377
:1008800001220021104602F0BAFBAAA30122002196
:10089000022002F0B4FBA7A301220021032002F0F2
:1008A000AEFBA4A301220021042002F0A8FBA1A317
:1008B00001220021052002F0A2FB9EA301220021BB
:1008C000062002F09CFB9BA301220021072002F0DE
:1008D00096FB98A301220021082002F090FB95A32B
:1008E00001220021092002F08AFB92A301220021AB
:1008F0000A2002F084FB95A301220521042002F0C6
:100900007EFB97A301220521062002F078FB99A324
:1009100001220521082002F072FB00F0FFBEFFF764
:10092000D0FC0446A54203D1974800680028F4D0C3
:100930002546112C74D00BDC082C59D003DC84B173
:10094000012C6ED189E0092C6CD0102CF9D160E11A
:10095000202C6AD0212C67D0402C1AD0412CF0D109
:100960007FE166480068012812D188A1884802F01A
:1009700067FD8848006855280AD08648006887289F
:1009800006D084480068B92802D055208149086003
:100990008BE181A17E4802F053FD7B48006850B195
:1009A0005748006838B9002077490860012053494A
:1009B0000860534908607948006850B150480068A1
:1009C00038B900207549086001204C4908604C493D
:1009D00008604948006850B14948006838B90020AB
:1009E00045490860012045490860454908605CE1C7
:1009F0006BA1674802F024FD4048006801280ED131
:100A000064480068872803D155206249086006E0E1
:100A100060480068B92802D187205E49086044E137
:100A200038E13CE113E100E016E15EA1584802F034
:100A300007FD3248006801280ED156480068552845
:100A400003D187205349086006E052480068872890
:100A500002D1B9204F49086027E1284800680128E1
:100A600021D151A14A4802F0EBFC4A4800685528C0
:100A700005D101202249086048490860C8E045487E
:100A80000068872805D101201D4908601A490860BF
:100A9000BEE040480068B92804D101201849086028
:100AA00039490860B4E03D480068012808D1404851
:100AB000006820B1012804D002287BD183E07AE0CD
:100AC00086E07CE0FCED00E000400340A200001066
:100AD000A0000010880000109C0000109E00001074
:100AE000A4000010980000109400001000C00840FE
:100AF000A8000010B40000104C00001044000010CA
:100B00005400001020202020204D6564696120439E
:100B1000656E746572202020202000002020202097
:100B2000202053656C656374204F6E652020202063
:100B300020200000202020202020202020202020F5
:100B400020202020202020202020000050686F74CA
:100B50006F2047616C6C65727920202000000000D6
:100B60004D503320506C6179657220202020202068
:100B70000000000047616D652020202020202020FB
:100B80002020202000000000500000104E00000037
:100B900022010010280000104C0000004800001046
:100BA00055000000440000004E20436C69636B0058
:100BB000580000100BE00220F749086007E0002011
:100BC000F549086003E00120F349086000BF1FE019
:100BD000F248006801281BD1F1490860F14800681B
:100BE00080B9AFF2B00301220021104602F007FAEB
:100BF000AFF2C00301220021022002F000FA01201E
:100C0000E8490860E848006810B10120E749086039
:100C10004BE0E7A1E74802F013FCE7480068012831
:100C200014D1DD48006820B1012806D002280CD17B
:100C300007E00120D849086007E00220D649086093
:100C400003E00020D449086000BF00BF2DE0DBA115
:100C5000D84802F0F5FB28E0DAA1D64802F0F0FB14
:100C600023E0DAA1D34802F0EBFBD3480068012867
:100C700003D0CA48006801280BD10020CE49086083
:100C8000D4490860C54908600120D3490860C749B4
:100C900008600AE0D1A1C74802F0D2FB05E0AFF23C
:100CA0001411C44802F0CCFB00BF00BFC24800686A
:100CB00001287DD10020C8490860B8490860C549AD
:100CC0000860BA480068012855D10020B74908607B
:100CD00002F008F94FF6E07002F001F9AFF2AC1340
:100CE00001220021084602F08AF9AFF2B81301226E
:100CF0000021104602F083F9AFF2C813012200214F
:100D0000022002F07CF9AFF2D4130122002103206B
:100D100002F075F9AFF2E41301220021042002F081
:100D20006EF9AFF2F01301220021052002F067F9FD
:100D3000AFF2002301220021062002F060F9AFF299
:100D40000C2301220021072002F059F9AFF21C23E5
:100D500001220021082002F052F9AFF228230122DB
:100D60000021092002F04BF9AFF2382301220021C3
:100D70000A2002F044F99B480068874909688842C4
:100D800052D08548006897490860AFF25823012285
:100D90000021084602F033F9AFF268230122002156
:100DA000104602F02CF9AFF274230122002100E07A
:100DB00060E0022002F023F9AFF288230122002133
:100DC000032002F01CF9AFF2942301220021042039
:100DD00002F015F9AFF2A42301220021052002F050
:100DE0000EF9AFF2B02301220021062002F007F92C
:100DF000AFF2C02301220021072002F000F9AFF278
:100E0000CC2301220021082002F0F9F8AFF2DC2304
:100E100001220021092002F0F2F8AFF2E8230122BA
:100E200000210A2002F0EBF85B48006820B101289D
:100E30000BD002281DD112E06B4850239A00962156
:100E40000090002002F04FF913E0684861234FF44E
:100E5000967200210090084602F045F909E06448C6
:100E600022231A46009063480168192002F03BF9DA
:100E700000BF52E55748006801287DD1002056493F
:100E800008604D49086045490860484800680128E5
:100E9000EFD100204549086002F024F84FF6E070D9
:100EA00002F01DF854A301220021084602F0A7F821
:100EB000AFF2803301220021104602F0A0F8AFF219
:100EC0008C3301220021022002F099F8AFF29C330A
:100ED00001220021032002F092F84DA301220021FB
:100EE000042002F08CF850A301220021052002F01A
:100EF00086F8AFF2C03301220021062002F07FF80D
:100F0000AFF2D03301220021072002F078F8AFF2CF
:100F1000DC3301220021082002F071F8AFF2EC333B
:100F200001220021092002F06AF8AFF2F833012211
:100F300000210A2002F063F801F055FA40484068A9
:100F400020F470103E4948600846406840F4101094
:100F500048603C48006840F480503B49C1F8C400F8
:100F60003A483B4908604FF400403A4908603A4823
:100F70000068C0F3810000E0A2E00290029830B166
:100F8000012870D0022872D0032875D000BF3348E2
:100F900000688008019074E05800001050000010B4
:100FA00060000010700000107C0000105400001061
:100FB0005200000022010010480000105520436C30
:100FC00069636B004420436C69636B004C20436C85
:100FD00069636B004C000010440000105220436C09
:100FE00069636B005C000010C3540200C4E403009A
:100FF000EF8B0000280000102020202020204D50E2
:101000003320506C61796572202020202020000060
:10101000202020204E6F772053747265616D696EB9
:101020006720202020200000202020204C656674AE
:1010300020546F20517569742E202020202000003C
:1010400000C00240C4C00F4000C00F40040E20008A
:101050000040034000C00840A8C10F40BC00001081
:1010600001E004E008E0FE480068019009E0FC4867
:1010700000684008019004E0F9480068C008019049
:1010800000BF00BF4FF4FA410198B0FBF1F0401EE1
:101090004FF040218861032048610120486000BF73
:1010A0000121814042094FF0E02303EB8202C2F8A4
:1010B000001100BF00F02FFC012000F071FC2DE3B7
:1010C000E848006801287DD10020E7490860E74929
:1010D0000860E7490860E7480068012871D10020EE
:1010E000E449086001F0FEFEAFF2B853012200218E
:1010F000084601F084FFE0A301220021104601F020
:101100007EFFE3A301220021022001F078FFAFF26D
:10111000DC5301220021032001F071FFAFF2EC53F8
:1011200001220021042001F06AFFAFF2F8530122EE
:101130000021052001F063FFAFF2086301220021C6
:10114000062001F05CFFAFF21463012200210720AA
:1011500001F055FFAFF2246301220021082001F0C5
:101160004EFFAFF2306301220021092001F047FF5A
:10117000AFF24063012200210A2001F040FF00206D
:10118000C9490860C9490860C94908607820C94947
:101190000860C9490860F020C84908600020C849B3
:1011A00008605020C74908600020C7490860C74947
:1011B0000860C74822231A4678210090084601F0AB
:1011C00092FF00E0F7E1B9480068002879D0BB48F9
:1011D00000686F2836DDB9480068962832DABD48C5
:1011E000006801280CD1B44800685C2804DBB248D0
:1011F00000681E309B283ADD0120AD49086036E0CA
:10120000B448006802280CD1AB4800688A2804DB87
:10121000A94800681E30D12829DD0120A4490860B2
:1012200025E0AC480068032821D1A34800682028A5
:1012300004DBA14800681E30852818DD01209C4988
:10124000086014E09D480068962810D19F48006807
:10125000401C9E49086008469FA10268A14802F010
:10126000EFF8A04B01220021084601F0C8FE954886
:1012700000686F2837DD93480068962833DA9A486B
:10128000006801280CD18C4800685C2804DB8A487F
:1012900000681E309B283BDD01208549086037E04F
:1012A0009148006802280DD1834800688A2804DB31
:1012B000814800681E30D1282ADD01207C49086061
:1012C00026E041E188480068032821D17A48006877
:1012D000202804DB784800681E30852818DD0120AE
:1012E0007349086014E077480068962810D1774861
:1012F0000068401C75490860084677A10268794873
:1013000002F09EF8774B01220021084601F077FE9B
:1013100067480068C8BB6948006810F1270F05DD01
:1013200066480068401F6549086010E04FF4A070EF
:101330006249086067480068032803D101206549B5
:10134000086004E063480068401C62490860614826
:10135000006801280AD16548F023272200905848E8
:1013600001685648006801F0BEFE1DE0594800685B
:1013700002280BD15E48F0232722009050480168D4
:101380004E48006801F0AFFE0EE055E0514800689D
:10139000032809D15748F0232722009048480168C4
:1013A0004648006801F09FFE4648006810F1270F8C
:1013B00005DD44480068401F4249086010E04FF4D2
:1013C000A0704049086048480068032803D1012004
:1013D0004549086004E044480068401C42490860F0
:1013E0004148006801280AD14048F0232722009094
:1013F000354801683348006801F075FE1CE03A4842
:10140000006802280AD13A48F023272200902E488B
:1014100001682C48006801F066FE0DE03248006863
:10142000032809D13348F023272200902648016879
:101430002448006801F057FE1D480068012808D1C3
:101440001D480068012804DA1B480068401C1A493E
:1014500008602948006808B115484FE07BE00000AB
:10146000BC000010500000104400001048000010A4
:101470004C0000105400001020202053656C656360
:101480007420546F20537461727420202020000057
:10149000202020204C65667420546F204C656176B6
:1014A00065202020202000007C000010700000102B
:1014B0006C0000102C0000103000001034000010F0
:1014C000380000103C0000104000001080000010A8
:1014D000EF8B00007400001053636F72653A202593
:1014E000690000002C01001078000010009E000030
:1014F0004130010082C2010060000010006850BB52
:101500008C480068052820DA8B480068C01F8A498B
:1015100008608A4822231A460090084601688848D5
:10152000006801F0E0FD83480068401C81490860C4
:101530008148006810F1050F06DA6FF004007E495B
:10154000086001207F490860E8E0002079490860D0
:101550007D490860E2E07B48006801280FD17648A9
:101560000068401C74490860784822231A4600909D
:10157000084601687248006801F0B5FD0EE06E484B
:101580000068C01D6C490860714822231A4600900B
:10159000084601686A48006801F0A5FD66480068D1
:1015A000CD28D1DDCD20644908600120654908605F
:1015B00068490860B2E0684800680128C4D100208A
:1015C00066490860664908606649086066480068C0
:1015D00001286AD100206449086001F083FC4FF6BD
:1015E000E07001F07CFCAFF6E42301220021084604
:1015F00001F005FDAFF6DC2301220021104601F0C9
:10160000FEFCAFF6D02301220021022001F0F7FCFE
:10161000AFF6E02301220021032001F0F0FCAFF639
:10162000EC2301220021042001F0E9FCAFF6FC23A9
:1016300001220021052001F0E2FCAFF6083301226F
:101640000021062001F0DBFCAFF618330122002157
:10165000072001F0D4FCAFF624330122002108203A
:1016600001F0CDFCAFF6343301220021092001F056
:10167000C6FCAFF64033012200210A2001F0BFFC76
:10168000AFF6383301220521042001F0B8FCAFF693
:10169000303301220521062001F0B1FCAFF62C33D6
:1016A00001220521082001F0AAFC30A3012200211B
:1016B000032001F0A4FC2DA301220021042001F04D
:1016C0009EFC2AA301220021052001F098FC27A3FB
:1016D00001220021062001F092FC24A30122002116
:1016E000072001F08CFC21A301220021082001F039
:1016F00086FC1EA301220021092001F080FC1BA30F
:10170000012200210A2001F07AFC1A4822231A46FD
:10171000009019480168192001F0E5FCFFF7FFB8B7
:1017200000F01F0201219140144A430942F823109E
:10173000704700006400001030000010DE790000E7
:101740002C0000106C00001060000010BC55000060
:10175000CD6700007C000010440000105000001015
:10176000480000104C0000105400001020202020E1
:1017700020000000EF8B00002800001080E100E056
:1017800001460A07D00E11F0800F00D0401C7047B0
:101790001021FE4A1160FE49C1F8100200BFFD4948
:1017A000096811F0100FFAD070471022F74B1A6039
:1017B000F74AC2F8100200BFF64A126812F0100F82
:1017C000FAD01022F14B1A60F14AC2F8101200BF91
:1017D000F04A126812F0100FFAD0704710B50446A4
:1017E0000B461020E94908602046FFF7C9FF4FF477
:1017F000A06141EA0040E649C1F8100200BFE54897
:10180000006810F0100FFAD01020E0490860E0489E
:10181000C0F8103200BFDF48006810F0100FFAD097
:1018200010BD01463020D94A1060D948C0F81012C6
:1018300000BFD848006810F0200FFAD0D6480068E2
:10184000704710B5044644F080004FF4807242EABD
:101850000041D248FFF7A9FF44F080004FF48072A6
:1018600042EA0041CD48FFF7A0FF10BD0021CC4A5D
:1018700011604FF04001C64AC2F84C124FF001010E
:10188000C74A11604FF04001C14AC2F84C1200BF74
:10189000C049096811F4807FFAD04FF0FF31C14A86
:1018A00011606FF04001BA4AC2F834124FF0FF31B4
:1018B000B64A11604FF00D01A2F104021160BA495D
:1018C000BA4A11604FF0FF31B94A1160B94A11604C
:1018D0004FF04001A2F1040211604FF0FF31B64A0F
:1018E0001160B64A1160B64A11604FF00701B54A5F
:1018F00011604FF00001B44A11605160084607E0E2
:101900000021B24A42F82010B14A42F82010401C8F
:101910002028F5D3704700B5AE48406820F07050DD
:10192000AC4948600846406840F0A050486008460E
:10193000C068A9490840A749C8600846C068A749C7
:101940000843A449C8600846006920F440200861A3
:101950000846006940F480200861A148006840F012
:101960000040A049C1F8C4004FF012009E49086031
:1019700000BF9E48006800F012001228F9D118201C
:101980000121814042094FF0E02303EB8202C2F8BB
:10199000001100BFFFF76AFF0020FFF752FF00BDF4
:1019A00010B504460CB1012000E000204FF4807215
:1019B00042EA00418E48FFF7F8FE10BD70477047BD
:1019C00000B58C48007810F0020F03D08A4988488F
:1019D000FFF7EBFE00BD704710B504460CB10120C7
:1019E00000E000204FF4807242EA00418348FFF794
:1019F000DCFE03208249086000BF6648006810F4DE
:101A0000807FFAD04FF480706049086010BD10B537
:101A100003469878FFF7B4FE0446794800684FF013
:101A2000010101FA04F140EA01005949C1F84402F8
:101A30005B4804609888C1F84C0200BF55480068B4
:101A400010F4807FFAD04FF480705049086010BDC8
:101A5000704730B504462046FFF792FE694941EAD7
:101A6000004589132846FFF7A0FE30BD30B5044677
:101A70002046FFF785FE634941EA00456249284652
:101A8000FFF793FE30BD30B504462046FFF778FEE1
:101A90005C4941EA004589132846FFF786FE30BDC0
:101AA00030B504462046FFF76BFE564941EA004533
:101AB00051492846FFF779FE30BD30B5044620462F
:101AC000FFF75EFE4F4941EA004589132846FFF7BC
:101AD0006CFE30BD10B504464C492046FFF77EFE33
:101AE00010BDF0B505460F4605F00F00012101EBD2
:101AF00080004749086000BF4648046814F4006F3E
:101B0000FAD0C4F30904002605E02148D0F81802F1
:101B100038603F1D761CE01CB6EB900FF5D300201B
:101B20003B49086041F2482040FA05F010F0010FEF
:101B300003D136492846FFF751FE2046F0BDF0B5E7
:101B400006460D46144606F00F00022101EB800008
:101B50002F4908600E48C0F824424FF0000706E005
:101B600028682D49086005F1040507F1010704F113
:101B70000300B7EB900FF3D30020254908602749F5
:101B80003046FFF72BFE2046F0BD000008C2005093
:101B900000C0005000C2005014C200500005D00028
:101BA00048C2005038C200500000082080C20050D7
:101BB00054C200508CC20050A4C20050B0C20050A9
:101BC000BCC2005094C20050AC000010380100109C
:101BD0000000082000C00240CFFFFFCF100000200F
:101BE000C4C00F4000C00F40F4CF0050F8CF0050E9
:101BF0000005FE0000000010000101000005D800F3
:101C000044C2005000054000000120000005F20021
:101C100028C2005020C200501CC200500005FA002B
:101C20002DE9F04381460C46207BC0F34005484631
:101C3000FFF7A6FD80460027E64850F8283017E059
:101C40001F46207B10F0010F11D1E34850F825000A
:101C5000381AE24951F82510B0FBF1F6E04850F887
:101C600025000121B1408843DD4941F825003B684A
:101C7000002BE5D1002608E0D94850F825100120B6
:101C8000B040014200D102E0761C202EF4D300BF08
:101C9000202E02D10020BDE8F083D14850F8251055
:101CA0000120B0400143CE4840F82510CA4850F802
:101CB0002500CA4951F8251006FB01034FB1207BCE
:101CC00010F0010F05D03B60786840F004007860A8
:101CD00005E0C04840F82830C24840F828300020CD
:101CE00001C3207BC0F38000217BC1F3400140EAA7
:101CF0000110E18840EA4110A18840EA014001C397
:101D0000206801C3A089C0F30720000201C30DB100
:101D1000A06818600120BEE700B503461846FFF72B
:101D20002FFD01218140B048016000BD00B5034690
:101D30001846FFF725FD01218140AC48016000BD38
:101D400070B506463046FFF71BFDA64951F8204006
:101D50000CB9002070BDE568C5F343000A2812D213
:101D6000DFE800F00507090B111111110D0F01201B
:101D7000F0E70220EEE70320ECE70520EAE7042085
:101D8000E8E70620E6E74FF6FF70E3E730B50546E3
:101D90002846FFF7F5FC934951F8203013B94FF06E
:101DA000FF3030BD9C682046FBE730B5054628462D
:101DB000FFF7E6FC8B4951F8203013B94FF0FF30A4
:101DC00030BDDC68200CFBE700B58948FFF7E0FC7C
:101DD0008848FFF726FD03468648FFF722FD43EAC1
:101DE0000023184600BD2DE9F0478348076817F027
:101DF000080F1CD00820814908608148FFF7C8FC03
:101E00008048FFF70EFD064616F0100F03D0FFF7CF
:101E10002DFDFEF7ADF916F0080F07D016F0040FF0
:101E200002D0FFF7CBFD01E0FFF7C9FDD0E017F0CE
:101E3000010F01D0FEF7A0F917F0040F49D04FF0C1
:101E400000097148D0F8308200243CE0C84500D138
:101E50003BE00120A04010EA080F32D00120A04052
:101E600040EA090965080120A0406849086000BFF0
:101E70006148006810F0200FFAD06548066814F039
:101E8000010F15D154B916F0040F07D0614800684E
:101E900020B1604801680120884713E05D4850F890
:101EA000250070B15B4850F825100220884708E0F3
:101EB000584850F8250020B1564850F82510032006
:101EC000884700BF641C202CC0D300BF04204B49AE
:101ED00008605148006810F0010F24D04F48066890
:101EE0004FF002041BE00120A040304216D06508EC
:101EF00014F0010F09D1474850F8250070B145484A
:101F000050F825100820884708E0424850F825007E
:101F100020B1404850F8251009208847641C202C27
:101F2000E1D33F4806603C48006810F0020F24D01F
:101F30003C4806684FF002041BE00120A0403042FC
:101F400016D0650814F0010F09D1324850F8250069
:101F500070B1304850F825100A20884708E02D4815
:101F600050F8250020B12B4850F825100B20884749
:101F7000641C202CE1D32C4806602748006810F030
:101F8000040F24D0294806684FF002041BE001200A
:101F9000A040304216D0650814F0010F09D11D4849
:101FA00050F8250070B11B4850F825100C208847C8
:101FB00008E0184850F8250020B1164850F82510C0
:101FC0000D208847641C202CE1D31948066000BF0F
:101FD000BDE8F087380100100C3D0000143D000002
:101FE000AC0000100000082088C200508CC20050D5
:101FF0000005F5000002F50000C2005008C20050C4
:102000000005FE000002FE0000C0005038C2005073
:1020100014C20050E83B000090C20050A0C2005023
:10202000A4C20050ACC20050B0C20050B8C20050B0
:10203000BCC2005035488088B0F5007F38D13348A5
:10204000807890BB3148C078012802D002282ED178
:102050000AE02E484078812805D12D4800782D4986
:1020600008700120704722E028484078812806D077
:1020700082280AD083280DD0842817D110E0264862
:102080000088244908800120ECE7002021490880CD
:102090000120E7E74FF480701E4908800120E1E746
:1020A00004201C4908800120DCE701E000BF00BFDC
:1020B0000020D7E715488088B0F5007F20D113486D
:1020C0008078E8B91148C078012802D0022816D1DA
:1020D0000AE00E484078012805D10E4800780C49E6
:1020E0000870012070470AE008484078012805D1AF
:1020F00008480088084908800120F3E700BF00BFB6
:102100000020EFE7002070470020704720000010FB
:1021100094000010D8000010B40000102DE9F04722
:10212000F9480068C0F3016003287CD1F7480068D3
:1021300010F0030006D0012833D002285FD0032816
:102140002ED100E000BFF0480068C0F3074000F166
:1021500001044FF00201EE48D0F88800C0F30E00F1
:1021600000F10100A1FB0001EA4B4FF0000CA0FBC5
:10217000037901FB039100FB0C11224663463846AC
:1021800001F0E6F80546E4480068C0B200F1010439
:1021900022464FF00003284601F0DAF8DF490860D4
:1021A0005DE0D9480068C0F3074000F101044FF03A
:1021B0000201D748D0F88800C0F30E0000F10100FA
:1021C000A1FB0010D64A4FF0000CA1FB027900FBE6
:1021D000029001FB0C0122466346384601F0B8F834
:1021E0000546CD480068C0B200F1010422464FF018
:1021F0000003284601F0ACF8C84908602FE0C24847
:102200000068C0F3074000F101044FF00201C0482C
:10221000D0F88800C0F30E0000F10100A1FB00120D
:102220004FF4004000E01BE04FF00003A1FB0079F9
:1022300002FB009001FB03012246384601F088F8BA
:102240000546B5480068C0B200F1010422464FF0CF
:102250000003284601F07CF8B049086000BF2FE079
:10226000AA48006810F0030006D0012810D0022808
:1022700019D0032823D100E000BFA7480068C0B2EE
:1022800000F10100A349B1FBF0F0A449086016E099
:10229000A1480068C0B200F10100A149B1FBF0F013
:1022A0009E4908600BE09C480068C0B200F1010044
:1022B0004FF40041B1FBF0F09849086000BF00BF47
:1022C000BDE8F0872020974908609148D0F8A00128
:1022D00010F0200F05D000BF9248006810F0400FAA
:1022E000FAD003208C4908604FF000008849C1F8FB
:1022F000A8018D4908604FF00100844908608B48AF
:102300008B4908604FF0AA008A4908604FF05500D9
:1023100008604FF00100884908604FF0AA00854925
:1023200008604FF055007A49C1F88C0000BF76482C
:10233000006810F0806FFAD003207F4908604FF0EA
:10234000AA007349C1F88C004FF055007949086024
:1023500000BF6D48006800F04070B0F1407FF8D1D8
:102360002320764908604FF0AA006949C1F8AC0003
:102370004FF05500724908604FF001007149086044
:102380004FF0AA006E4908604FF055006049C1F84F
:10239000AC0000BF6C48006810F4806FFAD00320D6
:1023A000684908604FF0AA005949C1F8AC004FF0E5
:1023B00055006349086000BF6348006800F440703E
:1023C000B0F5407FF8D16148614908604FF00000E6
:1023D0004F49C1F8C8010846006820F4704040F435
:1023E00080400860704748480068C0F301600328D7
:1023F00066D14648006810F0030006D0012823D0BB
:1024000002283FD003285AD100E000BF3E480068B0
:10241000C0F30E0000F101004FEA40013C48D0F843
:102420008800C0F3074000F10100B1FBF0F039492A
:1024300000FB01F038490968C9B201F10101B0FBA4
:10244000F1F0444908603AE02F480068C0F30E00FC
:1024500000F101004FEA40012D48D0F88800C0F398
:10246000074000F10100B1FBF0F02D4900FB01F045
:1024700029490968C9B201F10101B0FBF1F0354900
:1024800008601CE020480068C0F30E0000F1010065
:102490004FEA40011E48D0F88800C0F3074000F121
:1024A0000100B1FBF0F04FEAC0311B480068C0B238
:1024B00000F10100B1FBF0F02649086000BF58E0D0
:1024C0001248006810F0030006D0012810D002283E
:1024D00042D003284CD100E000BF0F480068C0B2D2
:1024E00000F101000B49B1FBF0F01A4908603FE030
:1024F00009480068C0B200F101000949B1FBF0F0E1
:102500001449086034E0000088C00F400CC10F403F
:1025100000C00F4000093D0004C10F40B80000108A
:10252000001BB700A0C10F40ACC10F406300050005
:1025300084C00F408CC00F4080C00F40A4C00F402B
:10254000ACC00F40A0C00F40A8C00F40DE872804D9
:10255000C4C00F40BC00001006480068C0B200F1C3
:1025600001004FF40041B1FBF0F00349086000BFE7
:1025700000BF704704C10F40BC0000102248006833
:1025800040F410402149C1F8C4002148406820F4BB
:1025900040201F4948600846406840F48020486059
:1025A0000846406C20F4402048640846406C40F4E3
:1025B0000020486417481849886370471648806BA4
:1025C00020F0E060144988630846806B40F080701A
:1025D000886370471048806B20F0E0600E49886384
:1025E000704700BF0C48C06B10F0004FFAD00A488B
:1025F000C06BC0F30B10094908800120084908701E
:102600000648008870470000C4C00F4000C00F405B
:1026100000C002400404200000400340C20000103B
:10262000C0000010800400BF0100A0F10100FBD138
:1026300070472DE9F04106460D460027012D06D1D1
:10264000FE48006840F40070FC49086005E0FB4863
:10265000006820F40070F9490860072422E0802017
:10266000F649C8610120FFF7DDFF012D0CD10120E3
:10267000A040304203D06802F04988610BE04FF47B
:102680000070EE49C86106E0EC484069C0F34020A4
:10269000A0403843C7B28020E84988610120FFF795
:1026A000C1FF641E002CDADA3846BDE8F08110B5AF
:1026B00004464020E149C861702000F07BFD002005
:1026C00000F078FD204600F075FD4020DB49886170
:1026D00010BD10B504464020D849C861722000F0F2
:1026E00069FD201200F066FDE0B200F063FD4020BD
:1026F000D249886110BD70B505462846FFF7D7FF5F
:1027000000BF00244020CD49C861732000F052FD75
:10271000002000F04FFD002000F04CFD04464FF675
:10272000FF7000EA0424002000F044FD0443402030
:10273000C2498861204670BD10B5C148006820F4C8
:102740007C20BF4908600846006C40F42A200864D9
:10275000BA48006840F08000B849086040208861AD
:10276000802088614020C86101217020FFF761FF4F
:1027700001210020FFF75DFF4020B0498861C8615A
:1027800001217320FFF755FF00210846FFF751FF95
:1027900004464020A94988610846006820F080006E
:1027A0000860A748006840F42820A549086008464A
:1027B000006C20F47F200864204610BD10B5A148AD
:1027C000006840F48060A049C1F8C4000846D0F811
:1027D000A80140F40010C1F8A8019948406A20F00F
:1027E0007060974948629548D0F8800040F04050AA
:1027F000964908604FF000509049C1F8980008468B
:10280000006840F0400008604FF0400088618C484C
:10281000006820F47C208A4908600846006840F47B
:102820002820086040F2C710894908604FF0020074
:1028300008614860FFF780FF04461CB90020FFF7DD
:102840005AFF0446472C7DD101208249087000219F
:10285000EA2000F0D1FC2021EB2000F0CDFC0C217F
:10286000EC2000F0C9FCC721ED2000F0C5FC3821A8
:10287000E82000F0C1FC1021E92000F0BDFC01219E
:10288000F12000F0B9FC1021F22000F0B5FC01218C
:10289000402000F0B1FC0021412000F0ADFC0021FF
:1028A000422000F0A9FC1021432000F0A5FC0E21DD
:1028B000442000F0A1FC2421452000F09DFC0421CF
:1028C000462000F099FC5021472000F095FC0221A1
:1028D000482000F091FC1321492000F08DFC1921C3
:1028E0004A2000F089FC19214B2000F085FC1621BC
:1028F0004C2000F081FC1B21502000F07DFC312198
:10290000512000F079FC2F21522000F075FC3F216E
:10291000532000F071FC3F21542000F06DFC3E215B
:10292000552000F069FC2F21562000F065FC7B212A
:10293000572000F061FC0921582000F05DFC0621C1
:10294000592000E098E000F057FC06215A2000F0E2
:1029500053FC0C215B2000F04FFC1D215C2000F09B
:102960004BFCCC215D2000F047FC1B21084600F009
:1029700043FC01211A2000F03FFC2F21242000F00D
:102980003BFC5721252000F037FC8821232000F054
:1029900033FC3621182000F02FFC0121192000F013
:1029A0002BFC0021012000F027FC88211F2000F0D3
:1029B00023FC1420FFF736FE82211F2000F01CFCB0
:1029C0000520FFF72FFE92211F2000F015FC0520A7
:1029D000FFF728FED2211F2000F00EFC0520FFF794
:1029E00021FE5521172000F007FC0021084600F0C9
:1029F00003FC11212F2000F0FFFB0021312000F00B
:102A0000FBFB0021322000F0F7FB3821282000F0EA
:102A1000F3FB1420FFF706FE3C21282000F0ECFB1E
:102A2000A821162000F0E8FB00210E2000F0E4FBB6
:102A300000210F2000F0E0FB01210DE000C0092083
:102A400000C00240C4C00F4000C00F4080C0092039
:102A500000000340CC000010102000F0CDFB40210E
:102A6000112000F0C9FB0021122000F0C5FB00215D
:102A7000132000F0C1FB91E10020F94908704FF4E8
:102A80008071012000F0B8FB4FF4E061022000F0FB
:102A9000B3FB0021042000F0AFFB40F20721082027
:102AA00000F0AAFB0021092000F0A6FB00210A206B
:102AB00000F0A2FB00210C2000F09EFB00210D2065
:102AC00000F09AFB00210F2000F096FB002110205F
:102AD00000F092FB0021112000F08EFB002112205B
:102AE00000F08AFB0021132000F086FB1420FFF782
:102AF00099FD41F2B021102000F07EFB072111204A
:102B000000F07AFB0520FFF78DFD40F2BD11122089
:102B100000F072FB0520FFF785FD4FF4A051132054
:102B200000F06AFB0E21292000F066FB0520FFF76C
:102B300079FD0021202000F05FFB0021212000F022
:102B40005BFBA4F5A840083806D0A0F57C501838E7
:102B50007ED005287DD150E040F60D31302000F0C8
:102B60004BFB41F62311312000F046FB41F6264194
:102B7000322000F041FB42F21C61332000F03CFBAC
:102B800042F21941342000F037FB40F60B5135205A
:102B900000F032FB41F20601362000F02DFB4FF42D
:102BA000C261372000F028FB40F20671382000F0A7
:102BB00023FB4FF44171392000F01EFB40F6056104
:102BC0003A2000F019FB40F601613B2000F014FBB5
:102BD0004FF487713C2000F00FFB40F20E513D2076
:102BE00000F00AFB40F203413E2000F005FB40F2FA
:102BF00007613F2000F000FB61E00021302000F081
:102C0000FBFA40F20761312000F0F6FA40F205319C
:102C1000322000F0F1FA0021352000F0EDFA41F207
:102C20000461362000F0E8FA4FF40171372000F01B
:102C3000E3FA0121382000F0DFFA40F20771392071
:102C400000F0DAFA00213C2000F0D6FA0F2101E072
:102C500005E003E03D2000F0CFFA30E000BF0621A0
:102C6000302000F0C9FA40F20111312000F0C4FA1E
:102C70000321322000F0C0FA4FF48371352000F0B8
:102C8000BBFA40F60231362000F0B6FA40F20231CB
:102C9000372000F0B1FA40F20771382000F0ACFAAA
:102CA0000721392000F0A8FA4FF4C0613C2000F061
:102CB000A3FA40F20B213D2000F09EFA00BF00BFB6
:102CC0000021502000F098FAEF21512000F094FAF2
:102CD0000021522000F090FA40F23F11532000F002
:102CE0008BFAA4F5A840083806D0A0F57C50183817
:102CF0000AD0052807D100E000BF4FF41C51602026
:102D000000F07AFA06E000BF4FF42741602000F09F
:102D100073FA00BF00BF0121612000F06DFA0021AD
:102D20006A2000F069FA0021802000F065FA002195
:102D3000812000F061FA0021822000F05DFA00217C
:102D4000832000F059FA0021842000F055FA002178
:102D5000852000F051FA1021902000F04DFA00215A
:102D6000922000F049FA0321932000F045FA4FF435
:102D70008871952000F040FA0021972000F03CFA7D
:102D80000021982000F038FA41F23801032000F0C9
:102D900033FA40F23711072000F02EFA4FF080503E
:102DA0003049086010BD2DE9F04704460D4616462F
:102DB0001F462B48007860B3A019A0F10108E8195C
:102DC000A0F10109C4F30F21022000F015FAE1B2CD
:102DD000032000F011FAC8F30F21042000F00CFAD0
:102DE00008F0FF01052000F007FAC5F30F210620C7
:102DF00000F002FAE9B2072000F0FEF9C9F30F2152
:102E0000082000F0F9F909F0FF01092000F0F4F9B9
:102E10001BE0A9B2502000F0EFF9E819401E81B282
:102E2000512000F0E9F9A1B2522000F0E5F9A01913
:102E3000401E81B2532000F0DFF9A9B2202000F03B
:102E4000DBF9A1B2212000F0D7F9BDE8F08710B579
:102E5000F0234FF4A07200210846FFF7A4FF10BD35
:102E6000CC00001098C0092070B504460D46E74814
:102E7000007820B3C4F30F21022000F0BDF9E1B2C5
:102E8000032000F0B9F9C4F30F21042000F0B4F9D5
:102E9000E1B2052000F0B0F9C5F30F21062000F0E3
:102EA000ABF9E9B2072000F0A7F9C5F30F2108201C
:102EB00000F0A2F9E9B2092000F09EF907E0A9B2FA
:102EC000202000F099F9A1B2212000F095F92220EC
:102ED000FFF7EDFBCE494888FFF7FBFB70BDCC49FF
:102EE00048807047CA490880704770B50546FFF7AB
:102EF000AEFF2220FFF7DBFB00F069F9002403E0BE
:102F0000284600F070F9641CB4F5963FF8D300F041
:102F100066F970BD2DE9FF5F8346164699460E9F00
:102F20004B46324658460199FFF73DFF2220FFF7F6
:102F3000BEFB00F04CF9F01D4FEAD00ABAF1010FC8
:102F400016D1002511E097F800807F1C002409E0CD
:102F500028FA04F101F00101AD4A32F8110000F045
:102F600042F9641CB442F3D36D1C4D45EBD318E019
:102F7000BAF1020F15D1002511E0B7F80080BF1C8F
:102F8000002409E028FA04F101F00101A04A32F816
:102F9000110000F028F9641CB442F3D36D1C4D45B8
:102FA000EBD300F01CF9BDE8FF9FF8B505460E46CF
:102FB00017461C46A4F12000C4B217B1012F1CD142
:102FC0000CE0944800EBC400E90006EB46020090D8
:102FD000500008230622FFF79DFF0EE004EB44009B
:102FE0008D4901EB001005EB4502D1000090300146
:102FF00018231022FFF78EFF00BF00BFF8BD2DE998
:10300000F04106460D4617461C4607E014F8013B02
:1030100029466D1C3A463046FFF7C7FF2078002846
:10302000F4D1BDE8F08170B590B006460D46FFF7CB
:103030000EFF15B1012D1CD10DE0002404E020206D
:1030400001A90855601CC4B2362CF8DB002101AA86
:10305000601C11540DE0002404E0202001A9085553
:10306000601CC4B2142CF8DB002101AA601C1154AE
:1030700000BF00BF01AB2A4600213046FFF7BFFF6B
:1030800010B070BD2DE9F04781468A4614461E46B1
:10309000089F07FB04F0870A3346224651464846FC
:1030A000FFF781FE2220FFF702FB00F090F84FF0BF
:1030B000000812E000250BE0BD4204D35449088803
:1030C00000F091F803E05249488800F08CF86D1C3C
:1030D000601EA842F0D208F10108B045EAD300F022
:1030E0007EF8BDE8F0872DE9F05F804689461446FA
:1030F0001F46DDF828A0D3463B46224649464046B7
:10310000FFF751FE2220FFF7D2FA00F060F8002509
:103110000AE0002605E0A9193BF8110000F063F869
:10312000761CA642F7D32544781E6043A842F0D807
:1031300000F055F8BDE8F09F10B504463748006828
:10314000001B3649086004E034480068F030334919
:10315000086032480068F028F6D92C48007880B121
:103160000821012000F048F82C480068C0F30F2126
:10317000142000F041F829480178152000F03CF8AF
:1031800009E02648008881B26A2000F035F8032162
:10319000612000F031F810BD10B504462046FFF75D
:1031A00086FA10BD70B504460D462946204600F04B
:1031B00023F870BD01461A48816000BF1848C068F6
:1031C00010F0040FFAD016488068C0B2704710B5EE
:1031D00040201449C8617220FFF7ECFF10BD402069
:1031E00010498861704710B504462012FFF7E2FFCE
:1031F000E0B2FFF7DFFF10BD70B505460C4628466C
:10320000FFF755FA2046FFF764FA70BDCC000010B6
:10321000C40000101C3D00009C400000C8000010CD
:103220000000034000C009201A480068401C1949EA
:103230000860084600680A2818D006DC032809D070
:1032400005280BD0082822D10CE00D2812D00F2819
:103250001DD113E001201049087019E001200F4929
:10326000087015E001200C49087011E001200B499D
:1032700008700DE001200849087009E000200549A8
:1032800008600120064908700449087000BF00BFAB
:1032900000BF7047D0000010D5000010D40000100F
:1032A000D60000102648006840F400402549C1F8C7
:1032B000C4002548006A40F03040234908620846AF
:1032C000006C40F07C0008647047032808D21E4957
:1032D000496B1E4A52F8202011431B4A516307E0F4
:1032E0001949496D194A52F820201143164A51656F
:1032F0007047032808D21449496B144A52F8202019
:103300009143114A516307E00F49496D0F4A52F842
:10331000202091430C4A5165704710B504460023A4
:103320000BE001209840204203D01846FFF7CDFF64
:1033300002E01846FFF7DDFF5B1C082BF1DB10BD38
:10334000C4C00F4000C00F4000C009209C550000C1
:1033500053EA020C00F069802DE9F04B4FF00006B3
:10336000002B1FBFB3FA83F503FA05F424FA05F620
:103370005E4012BF1643B2FA82F502FA05F4C5F1B7
:1033800020051EBF22FA05FC44EA0C04203556EA4B
:10339000044C4FEA144418BF641C4FF000084FF06F
:1033A0000009904271EB030C39D3002919BFB1FA1F
:1033B00081F701FA07F6B0FA80F700FA07F6C7F1CD
:1033C00020071EBF20FA07FC46EA0C062037B6FB92
:1033D000F4FCA7EB0507103F07F01F0BCBF120060D
:1033E0000CFA0BFB2CFA06F644BFB3460026202F3E
:1033F000A4BF5E464FF0000B5BEA060C08BF4FF01F
:10340000010B19EB0B09ABFB027C48EB0608C01B58
:1034100006FB02CC0BFB03CC71EB0C01C1E70B46A6
:10342000024641464846BDE8F08B13B54FF0000018
:103430004FF00001AFF30080BDE81C407047000072
:103440000FB41CB5074B06AA7B446946009005984B
:1034500000F0DBF800206946FCF74BFF1CBC5DF870
:1034600014FB0000A7CEFFFF2DE9F0410E460446F5
:10347000002020622046E168884730B3252805D027
:10348000D4E901219047206A401CF2E7E168204618
:1034900000278847050018D0A5F14100192802D857
:1034A00020354FF400673246294620462760FCF756
:1034B00047FE40B1012804D0F61D26F00706083665
:1034C000D8E7361DD6E72846DAE7206ABDE8F0815E
:1034D0002DE9F0410646002410687529314616A5ED
:1034E00011D0AFF30080002803DAC0F1000013A56B
:1034F00007E031688A0701D511A502E0490704D524
:1035000010A5012401E0AFF3008000210A2306F199
:10351000240707E0B0FBF3F203FB120030307854CD
:103520001046491C0028F5D123462A463046BDE8FE
:10353000F04100F009B80000000000002D0000007C
:103540002B000000200000002DE9F0470D469946B1
:103550009246044600F124080168880604D5E06913
:1035600021F01001216000E00120A84202DDA0EB63
:10357000050700E00027A16907EB050202EB09003F
:10358000A1EB0000A0612078C00602D42046AFF372
:103590000080002608E0D4E901211AF806009047CF
:1035A000206A401C761C20624E45F4DB2078C00661
:1035B0000AD52046AFF3008006E0D4E9012130208F
:1035C0009047206A401C2062381EA7F10107F4DCF6
:1035D00007E0D4E9012118F805009047206A401C53
:1035E0002062281EA5F10105F3DC2046AFF3008020
:1035F0002078000602D50220BDE8F0870120FBE715
:1036000001694A1C02610878704700B58FB0CDE9A6
:1036100001310021059105497944CDE90310114696
:103620006846FFF721FF0FB000BD0000E5FFFFFF78
:10363000754600F029F8AE4605006946534620F06D
:103640000700854618B020B5FCF710FEBDE8204005
:103650004FF000064FF000074FF000084FF0000B4E
:1036600021F00701AC46ACE8C009ACE8C009ACE801
:10367000C009ACE8C0098D4670470446AFF300802E
:103680002046FCF76FFD000000487047B8010010AD
:1036900001491820ABBEFEE726000200704700007B
:1036A00010B52848007810F01F0002D001283ED144
:1036B0003AE02448C078012804D0022807D0032823
:1036C0002ED118E02048214C206012232AE0204906
:1036D000002204E0087808B148880144521C1948C7
:1036E00080789042F6D1087808B9002010BD1748BC
:1036F00001604B8816E01749002204E0087808B101
:1037000008780144521C0F4880789042F6D108781E
:1037100008B90020EAE70D4801600068037801E07D
:103720000020E3E700BF04E000BF0020DEE7002048
:10373000DCE700BF05488088984201D9034CA3808C
:103740000120D3E720000010283C000018000010E2
:103750003A3C0000A83C00002748007810F01F0009
:1037600004D0012806D0022841D116E02348244B7A
:1037700018603EE02348007860B11F480079224B72
:103780001B78984206DA0020204B188018461C4B04
:10379000186001E0002070472BE01748007900F026
:1037A0008F0111F0800F05D001F00F034FF480302E
:1037B000984001E00120884002461248007810B984
:1037C00011F00F0F10D11248006810420CD01148B0
:1037D0000068104201D0012000E000200B4B18804F
:1037E0001846074B186001E00020D4E701E00020F4
:1037F000D1E700BF0120CEE720000010000000103C
:10380000180000100300001010000010D800001075
:10381000040000100800001070B506463348007818
:1038200010F01F0004D001281DD0022858D11CE040
:103830002E484088012813D146B1FEF7CCF82C4819
:10384000008840F002002A4908800BE00020FEF7C3
:10385000C2F82748008820F002002549088001E0CE
:10386000002070BD3EE00020FBE72048007900F01A
:103870008F0414F0800F05D004F00F014FF4803056
:10388000884001E00120A04005461A48007820B396
:1038900014F00F0F21D01848006828421DD013489B
:1038A0004088C0B946B12046FEF7FAF813480068D0
:1038B00028431249086012E011480068284201D0EC
:1038C0000120CEE72046FEF7F8F80C480068A84330
:1038D0000A49086003E00020C3E70020C1E701E0D7
:1038E0000020BEE700BF0120BBE700002000001061
:1038F0000000001003000010040000100800001079
:103900000C0000102DE9F04100266248007810F00C
:103910001F0F7DD15F48807800287AD05E4D7EE011
:103920006878022804D0042851D0052873D150E0CB
:10393000687958498978884245D1564880785749EE
:103940000870287956490870002403E00020554982
:103950000855641C042CF9D3012414E00120A04074
:1039600051490968084202D02046FEF77FF84FF41B
:103970008030A0404C490968084203D044F08000E0
:10398000FEF774F8641C102CE8D34FF00110464980
:103990000860002045490860454908600120FEF79D
:1039A0001BF8E87910F0400F06D04248008840F03C
:1039B00001004049088009E03E48008820F00100ED
:1039C0003C49088002E06888054428E023E0EE785E
:1039D00021E0E6B9A87800F08F0414F0800F05D03C
:1039E00004F00F014FF48030884001E00120A04036
:1039F00007462D48006838432B4908602846FEF7E3
:103A000006F82046FEF725F82046FEF73CF801E0D0
:103A10003BE009E000BF00BF2878054400BF2878DC
:103A200000287FF47DAF26E000201C4908700124A7
:103A300014E00120A0401C490968084202D0204639
:103A4000FEF714F84FF48030A04017490968084287
:103A500003D044F08000FEF709F8641C102CE8D372
:103A60004FF001101049086000201049086010490B
:103A70000860FDF7B1FF0748807808490978884257
:103A800002D00020BDE8F08101E00020FAE700BF8D
:103A90000120F7E7200000103A3C0000030000106E
:103AA00010000010110000100400001008000010A9
:103AB0000C000010000000102DE9F05F0027B84650
:103AC000BB46B9464248007800F01F00012879D172
:103AD0004048007810B90020BDE8F09F4FF0000A80
:103AE0003D4C6AE06078022804D004280BD00528F9
:103AF0005FD11EE0607937490978884202D060883A
:103B000004445AE055E0A77894F803804FF0000988
:103B10002F480079B8420BD12D488078404507D115
:103B20004FF0010A2D4810F807B0014601F8078050
:103B30003FE027480079B8423AD1A07800F08F06DC
:103B400016F0800F05D006F00F014FF4803088404A
:103B500001E00120B04005461D488078404515D160
:103B60001F48006828431E4908601E480068A84393
:103B70001C4908602046FDF74AFF3046FDF769FF03
:103B80003046FDF780FF49EA050911E0D8450FD11D
:103B900019EA050F0CD112480068A84310490860C3
:103BA00010480068A8430F4908603046FDF75EFFE3
:103BB00000BF00BF2078044400BF2078002891D1C6
:103BC00002E0FFE7002087E700BF504684E70000DF
:103BD00020000010030000103A3C0000110000100B
:103BE00004000010080000109F0300000000000007
:103BF000000000007F010000000000000000000045
:103C000000000000000000000000000000000000B4
:103C100000000000000000000000000000000000A4
:103C2000000000000000000012010002000000403F
:103C3000C91F024000010102030109026D000201D7
:103C40000080320904000000010100000924010085
:103C500001270001010C2402010101000100000004
:103C600000092406020101030000092403030103E3
:103C70000002000904010000010200000904010122
:103C80000101020000072401010101000B240201CF
:103C900001021001007D0009050301400001000040
:103CA0000725010000000000040309041C034E0066
:103CB000580050002000530065006D00690063004B
:103CC0006F006E00640020002A034E005800500070
:103CD00020004C005000430031003700780078008D
:103CE000200053007000650061006B0065007200E9
:103CF00020001A03440045004D004F003000300002
:103D000030003000300030003000300080000820EB
:103D100080010820100000001400000000000000D6
:103D20000000000004040404040004000A0A0A005D
:103D3000000000000A0A1F0A1F0A0A00041E050EDE
:103D4000140F0400031308040219180002050502E9
:103D5000150916000C0C0402000000000804020201
:103D60000204080002040808080402000004150EFA
:103D70000E1504000004041F0404000000000000ED
:103D80000C0C04020000001F0000000000000000F6
:103D9000000C0C0000100804020100000E111315A5
:103DA00019110E000406040404040E000E11100E76
:103DB00001011F001F10080C10110E00080C0A0949
:103DC0001F0808001F010F1010110E001C02010F28
:103DD00011110E001F101008040201000E11110E27
:103DE00011110E000E11111E100807000000040032
:103DF0000400000000000400040402001008040293
:103E00000408100000001F001F000000020408103A
:103E1000080402000E11100C040004000E11151D00
:103E20000D011E00040A11111F1111000F11110FB5
:103E300011110F000E11010101110E000F111111CE
:103E400011110F001F01010F01011F001F01010FC0
:103E5000010101001E11010119111E001111111F94
:103E6000111111000E04040404040E001C080808BB
:103E700008090600110905030509110001010101E6
:103E800001011F00111B151515111100111113153A
:103E9000191111000E11111111110E000F11110F36
:103EA000010101000E111111150916000F11110F5A
:103EB000050911000E11010E10110E001F1504044A
:103EC000040404001111111111110E00111111112E
:103ED000110A04001111111515150A0011110A0417
:103EE0000A11110011110A04040404001F10080E25
:103EF00002011F001E02020202021E000001020453
:103F0000081000001E10101010101E00040A1100EE
:103F1000000000000000000000001F00060604086A
:103F200000000000000006080E091E0001010D132C
:103F300011130D0000000E1101110E0010101619C2
:103F40001119160000000E111F010E000814040EB6
:103F50000404040000000E191916100E01010D13BF
:103F6000111111000400060404040E0008000808E2
:103F700008090600010109050305090006040404F7
:103F800004040E0000000B151515150000000D139C
:103F90001111110000000E1111110E0000000D137F
:103FA000130D0101000016191916101000000D1351
:103FB0000101010000001E010E100F0004041F0487
:103FC000041408000000111111191600000011114D
:103FD000110A04000000111115150A000000110A51
:103FE000040A1100000011111E10110E00001F081C
:103FF00004021F000804040204040800040404006E
:104000000404040002040408040402000215080069
:1040100000000000000000000000000000000C1282
:10402000120C000000000C1E1E0C000000001E12EE
:10403000121E000000001E1E1E1E000000000C0CC0
:10404000121E000000000C0C1E1E000000001E12BC
:104050000C0C000000001E1E0C0C000000001816C6
:10406000161800000000181E1E1800000000061A96
:104070001A0600000000061E1E06000000000C12BA
:10408000120C000000000C1E1E0C000000001E128E
:10409000121E000000001E1E1E1E00000000000078
:1040A0000000000000000000000000000000000010
:1040B0000000000000000000000000000000000000
:1040C000000000000000000000000000000080016F
:1040D00080018001800180018001800180018001D8
:1040E00080018001800180010000000080018001CA
:1040F00000000000000000000000000000000000C0
:10410000CC00CC00CC00CC00CC00CC0000000000E7
:10411000000000000000000000000000000000009F
:10412000000000000000000000000000000000008F
:104130000000000000000000600C600C600C300605
:104140003006FE1FFE1F300638071803FE1FFE1F35
:10415000180318038C018C018C0100000000800002
:10416000E003F80F9C0E8C1C8C188C009800F80152
:10417000E007800E801C8C188C189C18B80CF00F6F
:10418000E00380008000000000000000000000004C
:1041900000000E181B0C110C11061106110311035F
:1041A0009B018E01C038C06C604460443044304490
:1041B0001844186C0C380000000000000000E001FA
:1041C000F0033807180618063003F001F000F80075
:1041D0009C310E33061E061C061C063FFC73F021A4
:1041E00000000000000000000000000000000000CF
:1041F0000C000C000C000C000C000C000000000077
:1042000000000000000000000000000000000000AE
:10421000000000000000000000000000000000029C
:1042200000038001C000C00060006000300030006A
:10423000300030003000300030003000600060009E
:10424000C000C00080010003000200000000200048
:104250006000C0008001800100030003000600062A
:104260000006000600060006000600060003000324
:1042700080018001C00060002000000000000000FC
:104280000000000000000000C000C000D806F807D1
:10429000E0013003380700000000000000000000CB
:1042A000000000000000000000000000000000000E
:1042B00000000000000000008001800180018001FA
:1042C0008001FC3FFC3F8001800180018001800172
:1042D00000000000000000000000000000000000DE
:1042E00000000000000000000000000000000000CE
:1042F000000000000000000000000000000080013D
:1043000080010001000180000000000000000000AA
:10431000000000000000000000000000000000009D
:1043200000000000E007E0070000000000000000BF
:10433000000000000000000000000000000000007D
:10434000000000000000000000000000000000006D
:104350000000000000000000000000000000C0009D
:10436000C000000000000000000000000000000C81
:10437000000C000600060006000300030003800393
:10438000800180018001C000C000C00060006000AA
:104390000000000000000000000000000000E0033A
:1043A000F007380E180C0C180C180C180C180C18F8
:1043B0000C180C180C180C18180C380EF007E00329
:1043C00000000000000000000000000000000001EC
:1043D0008001C001F0019801880180018001800105
:1043E00080018001800180018001800180018001C5
:1043F0000000000000000000000000000000E003DA
:10440000F80F180C0C180C1800180018000C0006F7
:1044100000038001C000600030001800FC1FFC1F7A
:104420000000000000000000000000000000E001AB
:10443000F807180E0C0C0C0C000C0006C003C0078B
:10444000000C001800180C180C18180CF807E003E2
:104450000000000000000000000000000000000C50
:10446000000E000F000F800DC00C600C600C300CB3
:10447000180C0C0CFC3FFC3F000C000C000C000C5A
:104480000000000000000000000000000000F80F25
:10449000F80F180018000C00EC03FC071C0E001CA1
:1044A0000018001800180C181C0C180EF807E00370
:1044B0000000000000000000000000000000C00735
:1044C000F00F381C181818000C00CC03EC0F3C0E31
:1044D0001C1C0C180C180C18181C380EF007E003E4
:1044E0000000000000000000000000000000FC1FB1
:1044F000FC1F000C00060006000380038001C001C1
:10450000C000E0006000600070003000300030004B
:104510000000000000000000000000000000E003B8
:10452000F007380E180C180C180C3806F007F007B6
:10453000180C0C180C180C180C18380CF80FE00399
:104540000000000000000000000000000000E00388
:10455000F007380E1C0C0C180C180C181C1C381EFC
:10456000F81BE0190018000C000C1C0EF807F001F5
:10457000000000000000000000000000000000003B
:104580000000000000000000800180010000000029
:104590000000000000000000000000008001800119
:1045A000000000000000000000000000000000000B
:1045B00000000000000000008001800100000000F9
:1045C00000000000000000000000000080018001E9
:1045D0000001000180000000000000000000000059
:1045E0000000000000000000000000000010001C9F
:1045F000800FE003F8001800F800E003800F001CB3
:10460000001000000000000000000000000000009A
:10461000000000000000000000000000F81F000083
:1046200000000000F81F0000000000000000000073
:10463000000000000000000000000000000000007A
:10464000000000000000000000000000080038002A
:10465000F001C007001F0018001FC007F00138005C
:104660000800000000000000000000000000E0035F
:10467000F80F180C0C180C180018000C000600039A
:104680008001C000C000C00000000000C000C000E9
:10469000000000000000000000000000000000001A
:1046A000E00718180420C229224A11440944094489
:1046B000094409221113E20C024004201818E007F3
:1046C0000000000000000000000000000000800367
:1046D0008003C006C006C006600C600C301830189D
:1046E0003018F83FF83F1C700C600C6006C006C024
:1046F0000000000000000000000000000000FC03BB
:10470000FC0F0C0C0C180C180C180C0CFC07FC0FF4
:104710000C180C300C300C300C300C18FC1FFC0743
:104720000000000000000000000000000000C007C2
:10473000F01F38381C300C700660060006000600BA
:1047400006000600060006600C701C30F01FE00733
:104750000000000000000000000000000000FE0358
:10476000FE0F060E06180618063006300630063014
:1047700006300630063006180618060EFE0FFE0339
:104780000000000000000000000000000000FC3FEE
:10479000FC3F0C000C000C000C000C00FC1FFC1F6C
:1047A0000C000C000C000C000C000C00FC3FFC3F4B
:1047B0000000000000000000000000000000F83FC2
:1047C000F83F18001800180018001800F81FF81F0C
:1047D0001800180018001800180018001800180019
:1047E0000000000000000000000000000000E00FDA
:1047F000F83F3C780E6006E007C00300030003FEAC
:1048000003FE03C007C006C00EC03CF0F83FE00F37
:1048100000000000000000000000000000000C305C
:104820000C300C300C300C300C300C30FC3FFC3FAA
:104830000C300C300C300C300C300C300C300C3098
:1048400000000000000000000000000000008001E7
:104850008001800180018001800180018001800150
:104860008001800180018001800180018001800140
:104870000000000000000000000000000000000632
:1048800000060006000600060006000600060006F8
:10489000000600060006180618063807F003E001B7
:1048A00000000000000000000000000000000630D2
:1048B0000618060C060606038601C600660076008A
:1048C000DE008E0106030606060C0618063006609A
:1048D00000000000000000000000000000001800C0
:1048E0001800180018001800180018001800180008
:1048F000180018001800180018001800F81FF81FFA
:1049000000000000000000000000000000000EE0B9
:104910001EF01EF01EF036D836D836D836D866CC03
:1049200066CC66CCC6C6C6C6C6C6C6C686C386C361
:1049300000000000000000000000000000000C303B
:104940001C303C303C306C306C30CC30CC308C3156
:104950000C330C330C360C360C3C0C3C0C380C3045
:104960000000000000000000000000000000E00760
:10497000F81F1C380E70066003C003C003C003C0DC
:1049800003C003C003C006600E701C38F81FE007A8
:104990000000000000000000000000000000FC0F0C
:1049A000FC1F0C380C300C300C300C300C18FC1F79
:1049B000FC070C000C000C000C000C000C000C00A0
:1049C0000000000000000000000000000000E00700
:1049D000F81F1C380E70066003E003C003C003C05C
:1049E00003C003C007E006630E3F1C3CF83FE0F73E
:1049F00000C0000000000000000000000000FE0FEA
:104A0000FE1F06380630063006300638FE1FFE0749
:104A100006030606060C0618061806300630066061
:104A20000000000000000000000000000000E003A3
:104A3000F80F1C0C0C180C180C001C00F803E00FED
:104A4000001E0038063006300E301C1CF80FE00740
:104A50000000000000000000000000000000FE7FD9
:104A6000FE7F800180018001800180018001800142
:104A7000800180018001800180018001800180012E
:104A800000000000000000000000000000000C30EA
:104A90000C300C300C300C300C300C300C300C3036
:104AA0000C300C300C300C300C301818F81FE007AC
:104AB0000000000000000000000000000000036093
:104AC0000630063006300C180C180C18180C180C90
:104AD000380E30063006700760036003C001C00165
:104AE0000000000000000000000000000000036063
:104AF000C361C361C361663366336633663366334D
:104B000066336C1B6C1B6C1B2C1A3C1E380E380E4B
:104B100000000000000000000000000000000FE0A6
:104B20000C7018303018700C600EC00780038003C2
:104B3000C003E006700C301C18180C300E6007E043
:104B4000000000000000000000000000000003C0A2
:104B500006600C301C383818300C6006E007C003C3
:104B6000800180018001800180018001800180013D
:104B70000000000000000000000000000000FC7FBA
:104B8000FC7F006000300018000C0006000380016C
:104B9000C0006000300018000C000600FE7FFE7FA1
:104BA0000000000000000000000000000000E00322
:104BB000E003600060006000600060006000600072
:104BC00060006000600060006000600060006000E5
:104BD000600060006000E003E003000000003000BF
:104BE0003000600060006000C000C000C000C00174
:104BF000800180018001000300030003000600061D
:104C00000000000000000000000000000000E003C1
:104C1000E00300030003000300030003000300039C
:104C2000000300030003000300030003000300036C
:104C3000000300030003E003E003000000000000A5
:104C4000C001C00160036003600330063006180C29
:104C5000180C000000000000000000000000000030
:104C60000000000000000000000000000000000044
:104C70000000000000000000000000000000000034
:104C80000000000000000000000000000000FFFF26
:104C9000FFFF0000000000000000000000000C000A
:104CA0000C000C000C000C000C00000000000000C8
:104CB00000000000000000000000000000000000F4
:104CC00000000000000000000000000000000000E4
:104CD0000000000000000000F003F8071C0C0C0CA2
:104CE000000FF00FF80C0C0C0C0C1C0FF80FF01848
:104CF000000000000000000000000000000018009C
:104D00001800180018001800D803F80F380C1818ED
:104D100018181818181818181818380CF80FD8037D
:104D20000000000000000000000000000000000083
:104D30000000000000000000C003F007300E180C57
:104D40001800180018001800180C300EF007C003E7
:104D5000000000000000000000000000000000183B
:104D60000018001800180018C01BF01F301C18187D
:104D700018181818181818181818301CF01FC01B0D
:104D80000000000000000000000000000000000023
:104D90000000000000000000C003F00F300C1818E5
:104DA000F81FF81F180018003818301CF00FC00743
:104DB0000000000000000000000000000000800F64
:104DC000C00FC000C000C000F007F007C000C00066
:104DD000C000C000C000C000C000C000C000C000D3
:104DE00000000000000000000000000000000000C3
:104DF0000000000000000000E00DF80F180E0C0C81
:104E00000C0C0C0C0C0C0C0C0C0C180EF80FE00D10
:104E1000000C0C0C1C06F807F00100000000180044
:104E20001800180018001800D807F80F381C1818B8
:104E300018181818181818181818181818181818F2
:104E40000000000000000000000000000000C000A2
:104E5000C000000000000000C000C000C000C00092
:104E6000C000C000C000C000C000C000C000C00042
:104E70000000000000000000000000000000C00072
:104E8000C000000000000000C000C000C000C00062
:104E9000C000C000C000C000C000C000C000C00012
:104EA000C000C000C000F8007800000000000C0046
:104EB0000C000C000C000C000C0C0C060C038C01FC
:104EC000CC006C00FC009C018C030C030C060C0C49
:104ED0000000000000000000000000000000C00012
:104EE000C000C000C000C000C000C000C000C000C2
:104EF000C000C000C000C000C000C000C000C000B2
:104F000000000000000000000000000000000000A1
:104F100000000000000000007C3CFF7EC7E383C16E
:104F200083C183C183C183C183C183C183C183C161
:104F30000000000000000000000000000000000071
:104F400000000000000000009807F80F381C181837
:104F500018181818181818181818181818181818D1
:104F60000000000000000000000000000000000041
:104F70000000000000000000C003F00F300C181803
:104F800018181818181818181818300CF00FC00333
:104F90000000000000000000000000000000000011
:104FA0000000000000000000D803F80F380C1818AB
:104FB00018181818181818181818380CF80FD803DB
:104FC0001800180018001800180000000000000069
:104FD0000000000000000000C01BF01F301C18186B
:104FE00018181818181818181818301CF01FC01B9B
:104FF0000018001800180018001800000000000039
:105000000000000000000000B007F0037000300056
:105010003000300030003000300030003000300010
:105020000000000000000000000000000000000080
:105030000000000000000000E003F003380E180C30
:105040003800F003C007000C180C380EF007E0031E
:105050000000000000000000000000000000000050
:105060008000C000C000C000F007F007C000C00012
:10507000C000C000C000C000C000C000C007800762
:105080000000000000000000000000000000000020
:105090000000000000000000181818181818181850
:1050A00018181818181818181818381CF01FE019B4
:1050B00000000000000000000000000000000000F0
:1050C00000000000000000000C18180C180C180C50
:1050D000300630063006600360036003C001C00183
:1050E00000000000000000000000000000000000C0
:1050F0000000000000000000C141C141C3616363C2
:10510000636363633636363636361C1C1C1C1C1C27
:10511000000000000000000000000000000000008F
:1051200000000000000000001C38381C300C600635
:10513000C003C003C003C0036006300C381C1C3819
:10514000000000000000000000000000000000005F
:1051500000000000000000001830301830187018EF
:10516000600C600CE00CC006C00680038003800366
:1051700080018001C001F00070000000000000000C
:105180000000000000000000FC1FFC1F000C0006D7
:1051900000038001C000600030001800FC1FFC1FED
:1051A00000000000000000000000000000000003FC
:1051B0008001C000C000C000C000C000C00060008E
:1051C0006000300060004000C000C000C000C000AF
:1051D000C000C0008001000300000000000080014A
:1051E00080018001800180018001800180018001B7
:1051F00080018001800180018001800180018001A7
:1052000080018001800180018001000000006000B9
:10521000C000C00180018001800180018001000385
:10522000000300060003000180018001800180016D
:1052300080018001C000600000000000000000004C
:10524000000000000000000000000000F010F81F47
:10525000080F000000000000000000000000000037
:10526000000000000000000000000000000000003E
:10527000000000000000000000000000000000002E
:10528000000000000000000000000000000000001E
:10529000000000000000000000000000000000000E
:1052A000000000000000C003300C0810042004209F
:1052B0000240024002400240024004200420081044
:1052C000300CC003000000000000000000000000DF
:1052D000000000000000C003F00FF81FFC3FFC3F7F
:1052E000FE7FFE7FFE7FFE7FFE7FFC3FFC3FF81FC0
:1052F000F00FC003000000000000000000000000EC
:1053000000000000000000000000E007F00F181887
:1053100018181818181818181818F00FE0070000B7
:10532000000000000000000000000000000000007D
:1053300000000000000000000000E007F00FF81F70
:10534000F81FF81FF81FF81FF81FF00FE007000004
:10535000000000000000000000000000000000004D
:10536000000000000000000000000000000000003D
:10537000000000008001C0036006300C18181818E7
:10538000F81FF81F000000000000000000000000EF
:10539000000000000000000000000000000000000D
:1053A000000000008001C003E007F00FF81FF81FA5
:1053B000F81FF81F000000000000000000000000BF
:1053C00000000000F81FF81F18181818300C6006AD
:1053D000C003800100000000000000000000000089
:1053E00000000000000000000000000000000000BD
:1053F00000000000F81FF81FF81FF81FF00FE0076B
:10540000C003800100000000000000000000000058
:10541000000000000000000000000000000000008C
:1054200000000000000000000000E001F001980111
:105430008C01860186018C019801F001E0010000D9
:10544000000000000000000000000000000000005C
:1054500000000000000000000000E001F001F80181
:10546000FC01FE01FE01FC01F801F001E001000079
:10547000000000000000000000000000000000002C
:10548000000000000000000000008007800F80196D
:1054900080318061806180318019800F8007000039
:1054A00000000000000000000000000000000000FC
:1054B000000000000000000000008007800F801F37
:1054C000803F807F807F803F801F800F80070000AB
:1054D0000000000000000000000000000000C0010B
:1054E00020022002400130060808080808080808C1
:1054F00008080808080820022002200220022002D2
:105500002002200220022002200200000000C00130
:10551000E003E003C001F007D80DD80DD80DD80D79
:10552000D80DD80DD80D60036003600360036003DD
:105530006003600360036003600300000000C001BB
:10554000200220024001300608080808080804105C
:10555000022002204001200220021004080808084E
:105560000410041004200440000000000000C001EA
:10557000E003E003C001F007D80DD80DD80DCC1919
:10558000C631C261C001600360037006380C180C9C
:105590000C180C180C300C6000000000000000100B
:1055A000000000200000008004000000080000004F
:1055B000100000002000000040000000000000007B
:1055C00000000000000000000000000000000000DB
:1055D00000000000000041080631474146410539FE
:1055E000A318000000000000000000000000000000
:1055F00000000000000000000000000000000000AB
:10560000000000000000000000000000000000009A
:1056100000000000000000006210C420896A0A83B4
:105620002E7BC851821000002000210800000000DD
:10563000000000000000000000000000000000006A
:10564000000000000000000000000000000000005A
:1056500000000000000000000000611047412862C7
:105660004ECDD2F65BEF9AD6E95125392639E4289A
:1056700041080000000000000000000000000000E1
:10568000000000000000000000000000000000001A
:10569000000000000000000000000000E428C3201B
:1056A0006849AA7273E676FFFEFFBBDE4A6288494C
:1056B0002862874921080000000000000000000067
:1056C00000000000000000000000000000000000DA
:1056D000000000000000000000000000000083182F
:1056E0008749A8496849AB6A7EEFDEFFFFFF7AD69B
:1056F000C951086267B426AC2639A318000000001F
:105700000000000000000000000000000000000099
:105710000000000000000000000000000000410840
:10572000C4206549C69AA78A4641ED72BEF7DFFFDD
:10573000FFFF18CECA51877206FE06DD28620631C9
:105740002108000000000000000000000000000030
:105750000000000000000000000000000000000049
:105760000000A318A8496782E5DB66BB6749F08B98
:10577000BEF7FFFFFFFF39CE6941C782C6FDA8ED26
:105780004EA46B83E42862100000000000000000BB
:105790000000000000000000000000000000000009
:1057A000000000000000A318A949878245F446B311
:1057B00047411194DFFFDFFFFFFFD7C54741E78275
:1057C000A5FD6BFE32FF0EBDA949C42800000000F4
:1057D00000000000000000000000000000000000C9
:1057E00000000000000000000100C4206841677A4A
:1057F00045EC26AB2739939CDFFFFFFFFFFF96BDEB
:1058000048414793C6FDE7FD4AFE8CDD0C9CE97AD2
:105810004210200000000000000000000000000016
:1058200000000000000000000000821805314672F0
:1058300026AB86C345ECE6A2684151A4BBFFDEFF60
:10584000FFFFF4ACE638A7A3C6FDA5FDC5FD2AFE03
:1058500032FFEEBC8849E428000000000000000090
:105860000000000000000000000000000000E5282B
:10587000A85107A325EC05E405E4A78A48412D9C1F
:10588000B4FFB9FFFFFF32944741879B06FEA6FD98
:10589000A5F54CFE32FF6DAC6849E428000000001D
:1058A00000000000000000000000000000000000F8
:1058B0000000E528C85106A325E405E405E406A395
:1058C000878A0BA48ECD76DE3ACE309CA85147BC99
:1058D000E6FDC6FDA6FD6EFED1F66C8B4841832029
:1058E00000000000000000000000000000000000B8
:1058F0000000000000004639A84926AB25EC05E46D
:1059000025ECE5DBE5E3677A894988492D7BE8AB3F
:1059100006DDA6FDA6FDA6F5A5FD09FE4CFE8CBC88
:10592000AC93C549421000000000000000000000D8
:10593000000000000000000020004639A85186C386
:1059400025EC05DC05E405E405E40793486A276ACD
:10595000476A86C4C6FDC6FDA6FDA6FDA6FD85F563
:1059600027FE6EF6D2F6CA7A884983180000000036
:1059700000000000000000000000000000004739A7
:10598000C85986C325EC05E425E4E5E345EC86FD2E
:10599000E6FD66ED26E5A6F5E6FDA6FDC6FDC6FD1F
:1059A000C6FDA6FDA6FDAFFEF2FEEA7A67416210D3
:1059B00000000000000000000000000000000000E7
:1059C00041084739E859A5CB25EC05E4E5DB46B3AA
:1059D00066B346EDE6FDC6FDC6FDE6FDC6FD86EDF9
:1059E000A6F5C6FDC6FDE6FD06FECEFEB1F68A6A48
:1059F0008849621000000000000000000000000064
:105A000000000000410847390862C5D305E425ECD1
:105A1000A6CBE859486246E5E6FDC6FDA6F5E6FDDB
:105A200046ED2793E782E7824793479327B450EEEA
:105A300051E6AA7247414108000000000000000042
:105A4000000000000000000041086741286AC5D33B
:105A500005E4C78A26B38589068A06BCE6DCE6FD2E
:105A6000E6FD86EDA6CCAA72494168414741C630A1
:105A7000E951D1F651E66A6A263941080000000072
:105A800000000000000000000000000062108741DC
:105A9000086205E447ABC851A671A1E1C1D9C85954
:105AA000E872C6EDE6D4E7598A8BB294D5B553AD0A
:105AB00074AD56B592A4ADB4ADB4E95946394108B8
:105AC00000000000000000000000000000000000D6
:105AD000200041080431A782A5AAC599A3B1C3C17A
